:100000000C942A000C943F000C943F000C943F0089
:100010000C943F000C943F000C943F000C943F0064
:100020000C943F000C943F000C943F000C943F0054
:100030000C943F000C943F000C943F000C943F0044
:100040000C943F000C943F000C943F000C943F0034
:100050000C943F0011241FBECFE5D8E0DEBFCDBF1A
:1000600010E0A0E6B0E0E2ECF3E302C005900D92F0
:10007000A438B107D9F70E943D190C94DF190C94EC
:100080000000EF92FF920F931F937B018C0120E001
:1000900030E040E05FE40E94410388238CF0C80117
:1000A000B70120E030E040E05FE40E94B9010E9427
:1000B000A1039B01AC01205030404040504806C095
:1000C000C801B7010E94A1039B01AC01B901CA019B
:1000D0001F910F91FF90EF900895A0E0B0E0E3E74B
:1000E000F0E00C94A819DC012B01FA019C919230EC
:1000F00008F439C1EB018881823008F433C19430AF
:1001000069F4843009F02FC111969C91119789816F
:10011000981709F428C1ACE7B0E025C1843009F490
:1001200021C18230A9F4923009F01DC19A01AD01BC
:1001300088E0EA010990AE01E90109929E0181502F
:10014000C1F7E201898111969C918923818308C1BD
:10015000923009F407C112962D903C901397EB0151
:100160008A819B811496AD90BD90CD90DC901797BD
:10017000EC80FD800E811F819101281B390BB90194
:1001800037FF04C066277727621B730B6032710547
:100190000CF061C0121613066CF537014801062EEB
:1001A00004C096948794779467940A94D2F721E0D8
:1001B00030E040E050E004C0220F331F441F551FC1
:1001C0006A95D2F721503040404050402E213F21C7
:1001D00040235123211531054105510521F021E02E
:1001E00030E040E050E079018A01E628F72808294C
:1001F00019293CC0232BD1F1260E371E35014601AB
:10020000062E04C096948794779467940A94D2F744
:1002100021E030E040E050E004C0220F331F441FD3
:10022000551F6A95D2F721503040404050402A2156
:100230003B214C215D21211531054105510521F05E
:1002400021E030E040E050E059016A01A628B728DB
:10025000C828D9280BC0821593052CF01C01AA24AC
:10026000BB24650103C0EE24FF24870111969C91F5
:10027000D20111968C91981709F445C0992339F051
:10028000A80197012A193B094C095D0906C0A6017E
:1002900095012E193F09400B510B57FD08C01182E3
:1002A0003382228224833583468357831DC081E0B5
:1002B00081833382228288279927DC01821B930B5A
:1002C000A40BB50B84839583A683B7830DC0220F3F
:1002D000331F441F551F24833583468357838281F0
:1002E000938101979383828324813581468157814D
:1002F000DA01C9010197A109B1098F5F9F4FAF4F83
:10030000BF4328F30BC0918333822282EA0CFB1C8B
:100310000C1D1D1DE482F5820683178383E0808314
:10032000248135814681578157FF1AC0C901AA2708
:1003300097FDA095BA2F81709070A070B0705695FF
:10034000479537952795822B932BA42BB52B848328
:100350009583A683B7838281938101969383828359
:10036000DF0101C0D201CD01CDB7DEB7E2E10C94CF
:10037000C419A0E2B0E0EFEBF1E00C94B41969838A
:100380007A838B839C832D833E834F835887E9E058
:10039000EE2EF12CEC0EFD1ECE010196B7010E944F
:1003A000CA048E010F5E1F4FCE010596B8010E9450
:1003B000CA048A8991E089278A8BC701B801AE01F6
:1003C000475E5F4F0E946D000E94F503A096E6E035
:1003D0000C94D019A0E2B0E0E0EFF1E00C94B41975
:1003E00069837A838B839C832D833E834F835887D5
:1003F000F9E0EF2EF12CEC0EFD1ECE010196B701B7
:100400000E94CA048E010F5E1F4FCE010596B801EF
:100410000E94CA04C701B801AE01475E5F4F0E9447
:100420006D000E94F503A096E6E00C94D019A0E2BE
:10043000B0E0EDE1F2E00C94A81969837A838B8334
:100440009C832D833E834F835887CE010196BE0146
:10045000675F7F4F0E94CA04CE010596BE016F5EA2
:100460007F4F0E94CA049985923088F08989823032
:10047000C8F0943019F4823051F404C0843029F467
:10048000923081F48CE790E0C6C0923049F420E0CD
:100490009A858A89981321E02A87CE010996BBC0E4
:1004A000823049F420E09A858A89981321E02A8BCA
:1004B000CE014196B0C02D843E844F8458886D880B
:1004C0007E888F88988CEE24FF248701AA24BB2481
:1004D000650140E050E060E070E0E0E0F0E0C10184
:1004E00081709070892BE9F0E60CF71C081D191D2E
:1004F0009A01AB012A0D3B1D4C1D5D1D80E090E073
:10050000A0E0B0E0E614F7040805190520F481E046
:1005100090E0A0E0B0E0BA01A901480F591F6A1F9E
:100520007B1FAA0CBB1CCC1CDD1C97FE08C081E005
:1005300090E0A0E0B0E0A82AB92ACA2ADB2A3196C6
:10054000E032F10549F0660C771C881C991C569422
:10055000479437942794C3CFFA85EA892B893C893D
:100560008B859C85280F391F2E5F3F4F17C0CA010E
:1005700081709070892B61F016950795F794E79438
:1005800080E090E0A0E0B0E8E82AF92A0A2B1B2BD3
:1005900076956795579547952F5F3F4F77FDE7CF46
:1005A0000CC0440F551F661F771F17FD4160EE0CEE
:1005B000FF1C001F111F21503040403090E05907B0
:1005C00090E0690790E4790760F32B8F3C8FDB01A3
:1005D000CA018F779070A070B07080349105A1052A
:1005E000B10561F447FD0AC0E114F10401051105EC
:1005F00029F0405C5F4F6F4F7F4F40781A8EFE1797
:1006000011F081E08A8F4D8F5E8F6F8F78A383E02A
:10061000898FCE0149960E94F503A096E2E10C94E1
:10062000C419A8E1B0E0E7E1F3E00C94B4196983E0
:100630007A838B839C832D833E834F83588789E005
:10064000E82EF12CEC0EFD1ECE010196B7010E94A2
:10065000CA048E010F5E1F4FCE010596B8010E949D
:10066000CA048985823040F08989823028F0C70128
:10067000B8010E94420501C08FEF6896E6E00C9435
:10068000D019A8E1B0E0E7E4F3E00C94B419698371
:100690007A838B839C832D833E834F83588789E0A5
:1006A000E82EF12CEC0EFD1ECE010196B7010E9442
:1006B000CA048E010F5E1F4FCE010596B8010E943D
:1006C000CA048985823040F08989823028F0C701C8
:1006D000B8010E94420501C08FEF6896E6E00C94D5
:1006E000D019A8E1B0E0E7E7F3E00C94B41969830E
:1006F0007A838B839C832D833E834F83588789E045
:10070000E82EF12CEC0EFD1ECE010196B7010E94E1
:10071000CA048E010F5E1F4FCE010596B8010E94DC
:10072000CA048985823040F08989823028F0C70167
:10073000B8010E94420501C081E06896E6E00C9491
:10074000D019ACE0B0E0E7EAF3E00C94B8196983A3
:100750007A838B839C83CE010196BE016B5F7F4FB2
:100760000E94CA048D81823061F1823050F1843060
:1007700021F48E81882351F12EC02F81388537FDD9
:1007800020C06E812F3131051CF06623F9F023C0A3
:100790008EE190E0821B930B29853A854B855C8521
:1007A00004C056954795379527958A95D2F76623C5
:1007B000B1F050954095309521953F4F4F4F5F4F89
:1007C0000EC020E030E040E050E009C02FEF3FEFE6
:1007D0004FEF5FE704C020E030E040E050E8B901AF
:1007E000CA012C96E2E00C94D419DF92EF92FF92AA
:1007F0000F931F93FC01E480F58006811781D1805F
:100800008081823048F480E090E0A0E1B0E0E82A06
:10081000F92A0A2B1B2BA5C0843009F49FC0823013
:1008200021F4EE24FF24870105C0E114F104010541
:10083000110519F4E0E0F0E096C0628173819FEF4A
:10084000623879070CF05BC022E83FEF261B370BBC
:100850002A3131052CF020E030E040E050E02AC0A1
:10086000B801A701022E04C0769567955795479564
:100870000A94D2F781E090E0A0E0B0E004C0880FD5
:10088000991FAA1FBB1F2A95D2F70197A109B10989
:100890008E219F21A023B1230097A105B10521F04E
:1008A00081E090E0A0E0B0E09A01AB01282B392B69
:1008B0004A2B5B2BDA01C9018F779070A070B07062
:1008C00080349105A105B10539F427FF09C0205CEA
:1008D0003F4F4F4F5F4F04C0215C3F4F4F4F5F4F23
:1008E000E0E0F0E02030A0E03A07A0E04A07A0E412
:1008F0005A0710F0E1E0F0E079018A0127C0603882
:10090000710564F5FB01E158FF4FD801C7018F77EE
:100910009070A070B07080349105A105B10539F4D4
:10092000E7FE0DC080E490E0A0E0B0E004C08FE3FB
:1009300090E0A0E0B0E0E80EF91E0A1F1B1F17FFB1
:1009400005C016950795F794E794319687E01695BC
:100950000795F794E7948A95D1F705C0EE24FF2414
:100960008701EFEFF0E06E2F679566276795902F70
:100970009F77D794DD24D7948E2F8695492F462BC9
:10098000582F5D29B701CA011F910F91FF90EF9079
:10099000DF900895FC01DB01408151812281622FAB
:1009A0006F7770E0221F2227221F9381892F880FE3
:1009B000822B282F30E0991F9927991F11969C931D
:1009C000119721153105A9F54115510561057105ED
:1009D00011F482E037C082E89FEF13969C938E93C8
:1009E00012979A01AB0167E0220F331F441F551F76
:1009F0006A95D1F783E08C930DC0220F331F441FFB
:100A0000551F12968D919C911397019713969C9365
:100A10008E931297203080E0380780E0480780E40A
:100A2000580758F314962D933D934D935C93179765
:100A300008952F3F310579F4411551056105710580
:100A400019F484E08C93089564FF03C081E08C93D3
:100A500012C01C9210C02F57304013963C932E9317
:100A6000129783E08C9387E0440F551F661F771F12
:100A70008A95D1F7706414964D935D936D937C9332
:100A8000179708951F93DC01FB019C91923008F4A5
:100A900047C08081823008F443C0943051F41196ED
:100AA0001C91843099F58181682F70E0611B710978
:100AB0003FC0843021F0923031F48230B9F181812D
:100AC000882389F12DC011961C9111978230F1F085
:100AD00081811817D9F412962D913C911397828138
:100AE00093818217930794F028173907BCF0149666
:100AF0008D919D910D90BC91A02D248135814681D1
:100B00005781281739074A075B0718F4112341F06A
:100B10000AC082179307A407B50740F4112319F000
:100B200061E070E005C06FEF7FEF02C060E070E051
:100B3000CB011F910895DF93CF93CDB7DEB70E940D
:100B400084130E943615CF91DF910895EF92FF92A2
:100B50000F931F93DF93CF93CDB7DEB7A4970FB654
:100B6000F894DEBF0FBECDBF1C8A188A198A1A8A74
:100B70001B8A1C861D861E861F861B8680E18A872F
:100B800018861F821E821D821C821B821A82198275
:100B90000E9488148A878A858031D1F38A850E94D1
:100BA000C80D89878A858C30C1F40E94CE158FE0EC
:100BB0000E94BC18188A198A1A8A1B8A1C861D86EC
:100BC0001E861F861B861C8A1F8218861E821D8217
:100BD0001C821B821A821982DBCF89858A3008F039
:100BE00063C088858D33B9F40E94CE158FE00E94D2
:100BF000BC18188A198A1A8A1B8A1C861D861E86AA
:100C00001F861B861C8A1F8218861E821D821C82DC
:100C10001B821A8219828B81882309F0B9CF8885BB
:100C20008F3229F48985882311F481E08E838985A8
:100C3000882F90E0A0E0B0E0BC01CD010E94151823
:100C40008C898F5F8C8B88899989AA89BB892AE0D6
:100C500030E040E050E0BC01CD010E944C199B0106
:100C6000AC018985882F90E0A0E0B0E0820F931F4F
:100C7000A41FB51F888B998BAA8BBB8B8D8181306C
:100C800081F488899989AA89BB89B095A0959095A6
:100C900081959F4FAF4FBF4F888B998BAA8BBB8B92
:100CA0001D828985888774CF8B81882309F006C7C8
:100CB00088858D3309F0EAC20E94CE1580E060E09D
:100CC0000E94C91880E690E00E94F91783E08C8B9F
:100CD0008B85E82EFF24FCA2EBA20BA11CA10B32FA
:100CE0001105C9F02BA13CA12C3231053CF48BA19C
:100CF0009CA18A32910509F472C1C6C20BA11CA144
:100D00000D32110509F4C2C02BA13CA12F323105CF
:100D100009F410C2B9C28A81813031F08C859D8579
:100D2000AE85BF85BB23DCF58C859D85AE85BF85F3
:100D300024E630E040E050E0BC01CD010E944C19B7
:100D40009B01AC018C81882F90E0A0E0B0E079019C
:100D50008A01E81AF90A0A0B1B0BD801C7018C8714
:100D60009D87AE87BF8788899989AA89BB8924E630
:100D700030E040E050E0BC01CD010E944C199B01E5
:100D8000AC018C859D85AE85BF85820F931FA41F06
:100D9000B51F8C879D87AE87BF871A8235C08C852B
:100DA0009D85AE85BF8524E630E040E050E0BC0183
:100DB000CD010E944C199B01AC018C81882F90E0E1
:100DC000A0E0B0E0820F931FA41FB51F8C879D8702
:100DD000AE87BF8788899989AA89BB8924E630E0D4
:100DE00040E050E0BC01CD010E944C199B01AC01D8
:100DF0008C859D85AE85BF85820F931FA41FB51F6F
:100E00008C879D87AE87BF878C859D85AE85BF8586
:100E1000BB23CCF48C859D85AE85BF85B095A09510
:100E2000909581959F4FAF4FBF4F24E630E040E053
:100E300050E0BC01CD010E948D19DC01CB018C83F7
:100E400081E0898310C08C859D85AE85BF8524E6B1
:100E500030E040E050E0BC01CD010E948D19DC0182
:100E6000CB018C8319828C859D85AE85BF8524E658
:100E700030E040E050E0BC01CD010E948D19DA0164
:100E8000C9018C879D87AE87BF87FEC18A8181306B
:100E900031F08C859D85AE85BF85BB23DCF58C85C7
:100EA0009D85AE85BF8524E630E040E050E0BC0182
:100EB000CD010E944C199B01AC018C81882F90E0E0
:100EC000A0E0B0E079018A01E81AF90A0A0B1B0BCD
:100ED000D801C7018C879D87AE87BF87888999898C
:100EE000AA89BB892CE93FEF4FEF5FEFBC01CD0131
:100EF0000E944C199B01AC018C859D85AE85BF85F8
:100F0000820F931FA41FB51F8C879D87AE87BF8755
:100F10001A8235C08C859D85AE85BF8524E630E07C
:100F200040E050E0BC01CD010E944C199B01AC0196
:100F30008C81882F90E0A0E0B0E0820F931FA41F67
:100F4000B51F8C879D87AE87BF8788899989AA89B5
:100F5000BB892CE93FEF4FEF5FEFBC01CD010E9451
:100F60004C199B01AC018C859D85AE85BF85820F98
:100F7000931FA41FB51F8C879D87AE87BF878C8565
:100F80009D85AE85BF85BB23CCF48C859D85AE85C4
:100F9000BF85B095A095909581959F4FAF4FBF4F5E
:100FA00024E630E040E050E0BC01CD010E948D1904
:100FB000DC01CB018C8381E0898366C18C859D85B2
:100FC000AE85BF8524E630E040E050E0BC01CD01B5
:100FD0000E948D19DC01CB018C83198255C18A8155
:100FE000813031F08C859D85AE85BF85BB239CF516
:100FF0008C859D85AE85BF8524E630E040E050E0DD
:10100000BC01CD010E944C199B01AC018C81882F41
:1010100090E0A0E0B0E079018A01E81AF90A0A0B31
:101020001B0BD801C7018C879D87AE87BF878C8536
:101030009D85AE85BF85288939894A895B89BC0130
:10104000CD010E944C19DC01CB018C879D87AE87B6
:10105000BF871A822DC08C859D85AE85BF8524E60D
:1010600030E040E050E0BC01CD010E944C199B01F2
:10107000AC018C81882F90E0A0E0B0E0820F931F3C
:10108000A41FB51F8C879D87AE87BF878C859D85E4
:10109000AE85BF85288939894A895B89BC01CD0124
:1010A0000E944C19DC01CB018C879D87AE87BF87DE
:1010B0008C859D85AE85BF85BB23CCF48C859D85B5
:1010C000AE85BF85B095A095909581959F4FAF4F08
:1010D000BF4F24E630E040E050E0BC01CD010E946B
:1010E0008D19DC01CB018C8381E0898310C08C8554
:1010F0009D85AE85BF8524E630E040E050E0BC0130
:10110000CD010E948D19DC01CB018C8319828C8565
:101110009D85AE85BF8524E630E040E050E0BC010F
:10112000CD010E948D19DA01C9018C879D87AE8798
:10113000BF87AAC08A81813031F08C859D85AE85BC
:10114000BF85BB239CF58C859D85AE85BF8524E638
:1011500030E040E050E0BC01CD010E944C199B0101
:10116000AC018C81882F90E0A0E0B0E079018A0189
:10117000E81AF90A0A0B1B0BD801C7018C879D8757
:10118000AE87BF878C859D85AE85BF8528893989C7
:101190004A895B89BC01CD010E948D19DA01C90120
:1011A0008C879D87AE87BF871A822DC08C859D85D1
:1011B000AE85BF8524E630E040E050E0BC01CD01C3
:1011C0000E944C199B01AC018C81882F90E0A0E01B
:1011D000B0E0820F931FA41FB51F8C879D87AE8739
:1011E000BF878C859D85AE85BF85288939894A89C9
:1011F0005B89BC01CD010E948D19DA01C9018C8780
:101200009D87AE87BF878C859D85AE85BF85BB23B7
:10121000CCF48C859D85AE85BF85B095A0959095C5
:1012200081959F4FAF4FBF4F24E630E040E050E044
:10123000BC01CD010E948D19DC01CB018C8381E0C2
:10124000898310C08C859D85AE85BF8524E630E0FE
:1012500040E050E0BC01CD010E948D19DC01CB01C2
:101260008C8319828C859D85AE85BF8524E630E010
:1012700040E050E0BC01CD010E948D19DA01C901A6
:101280008C879D87AE87BF8789858B8789850E94DC
:10129000EC178C898F5F8C8B8C898130F1F4898578
:1012A000082F10E01AA309A329A13AA12D32310574
:1012B00081F089A19AA18F32910541F009A11AA16B
:1012C0000A32110551F481E08F8307C081E08F83DA
:1012D00004C081E08D838985888788858A3008F0FD
:1012E000FAC28B85282F30E038A32F8F8F8D98A1DD
:1012F0008B329105C9F00F8D18A10C3211053CF409
:101300002F8D38A12A32310509F484C1D9C28F8DBD
:1013100098A18D32910509F4C2C00F8D18A10F322A
:10132000110509F422C2CCC28A81813031F08C854A
:101330009D85AE85BF85BB23DCF58C859D85AE85FF
:10134000BF8524E630E040E050E0BC01CD010E94C2
:101350004C199B01AC018C81882F90E0A0E0B0E09B
:1013600079018A01E81AF90A0A0B1B0BD801C70197
:101370008C879D87AE87BF8788899989AA89BB8911
:1013800024E630E040E050E0BC01CD010E944C1961
:101390009B01AC018C859D85AE85BF85820F931F17
:1013A000A41FB51F8C879D87AE87BF871A8235C063
:1013B0008C859D85AE85BF8524E630E040E050E019
:1013C000BC01CD010E944C199B01AC018C81882F7E
:1013D00090E0A0E0B0E0820F931FA41FB51F8C87A0
:1013E0009D87AE87BF8788899989AA89BB8924E6AA
:1013F00030E040E050E0BC01CD010E944C199B015F
:10140000AC018C859D85AE85BF85820F931FA41F7F
:10141000B51F8C879D87AE87BF878C859D85AE85E0
:10142000BF85BB23CCF48C859D85AE85BF85B095EB
:10143000A095909581959F4FAF4FBF4F24E630E028
:1014400040E050E0BC01CD010E948D19DC01CB01D0
:101450008C8381E0898310C08C859D85AE85BF8596
:1014600024E630E040E050E0BC01CD010E948D193F
:10147000DC01CB018C8319828C859D85AE85BF856F
:1014800024E630E040E050E0BC01CD010E948D191F
:10149000DA01C9018C879D87AE87BF8719C28A810F
:1014A000813031F08C859D85AE85BF85BB23DCF511
:1014B0008C859D85AE85BF8524E630E040E050E018
:1014C000BC01CD010E944C199B01AC018C81882F7D
:1014D00090E0A0E0B0E079018A01E81AF90A0A0B6D
:1014E0001B0BD801C7018C879D87AE87BF87888972
:1014F0009989AA89BB892CE93FEF4FEF5FEFBC01C7
:10150000CD010E944C199B01AC018C859D85AE8557
:10151000BF85820F931FA41FB51F8C879D87AE8741
:10152000BF871A8235C08C859D85AE85BF8524E630
:1015300030E040E050E0BC01CD010E944C199B011D
:10154000AC018C81882F90E0A0E0B0E0820F931F67
:10155000A41FB51F8C879D87AE87BF87888999890F
:10156000AA89BB892CE93FEF4FEF5FEFBC01CD01AA
:101570000E944C199B01AC018C859D85AE85BF8571
:10158000820F931FA41FB51F8C879D87AE87BF87CF
:101590008C859D85AE85BF85BB23CCF48C859D85D0
:1015A000AE85BF85B095A095909581959F4FAF4F23
:1015B000BF4F24E630E040E050E0BC01CD010E9486
:1015C0008D19DC01CB018C8381E0898310C08C856F
:1015D0009D85AE85BF8524E630E040E050E0BC014B
:1015E000CD010E948D19DC01CB018C8319828C8581
:1015F0009D85AE85BF8524E630E040E050E0BC012B
:10160000CD010E948D19DA01C9018C879D87AE87B3
:10161000BF875EC18A81813031F08C859D85AE8522
:10162000BF85BB239CF58C859D85AE85BF8524E653
:1016300030E040E050E0BC01CD010E944C199B011C
:10164000AC018C81882F90E0A0E0B0E079018A01A4
:10165000E81AF90A0A0B1B0BD801C7018C879D8772
:10166000AE87BF878C859D85AE85BF8528893989E2
:101670004A895B89BC01CD010E944C19DC01CB0178
:101680008C879D87AE87BF871A822DC08C859D85EC
:10169000AE85BF8524E630E040E050E0BC01CD01DE
:1016A0000E944C199B01AC018C81882F90E0A0E036
:1016B000B0E0820F931FA41FB51F8C879D87AE8754
:1016C000BF878C859D85AE85BF85288939894A89E4
:1016D0005B89BC01CD010E944C19DC01CB018C87D8
:1016E0009D87AE87BF878C859D85AE85BF85BB23D3
:1016F000CCF48C859D85AE85BF85B095A0959095E1
:1017000081959F4FAF4FBF4F24E630E040E050E05F
:10171000BC01CD010E948D19DC01CB018C8381E0DD
:10172000898310C08C859D85AE85BF8524E630E019
:1017300040E050E0BC01CD010E948D19DC01CB01DD
:101740008C8319828C859D85AE85BF8524E630E02B
:1017500040E050E0BC01CD010E948D19DA01C901C1
:101760008C879D87AE87BF87B3C08A81813031F077
:101770008C859D85AE85BF85BB239CF58C859D851D
:10178000AE85BF8524E630E040E050E0BC01CD01ED
:101790000E944C199B01AC018C81882F90E0A0E045
:1017A000B0E079018A01E81AF90A0A0B1B0BD8018B
:1017B000C7018C879D87AE87BF878C859D85AE8549
:1017C000BF85288939894A895B89BC01CD010E947E
:1017D0008D19DA01C9018C879D87AE87BF871A8270
:1017E0002DC08C859D85AE85BF8524E630E040E028
:1017F00050E0BC01CD010E944C199B01AC018C81D1
:10180000882F90E0A0E0B0E0820F931FA41FB51FC7
:101810008C879D87AE87BF878C859D85AE85BF856C
:10182000288939894A895B89BC01CD010E948D19BB
:10183000DA01C9018C879D87AE87BF878C859D851E
:10184000AE85BF85BB23CCF481E089838C859D85E3
:10185000AE85BF85B095A095909581959F4FAF4F70
:10186000BF4F24E630E040E050E0BC01CD010E94D3
:101870008D19DC01CB018C8310C08C859D85AE85D4
:10188000BF8524E630E040E050E0BC01CD010E947D
:101890008D19DC01CB018C8319828C859D85AE85E9
:1018A000BF8524E630E040E050E0BC01CD010E945D
:1018B0008D19DA01C9018C879D87AE87BF8708C063
:1018C00088899989AA89BB898C879D87AE87BF87BC
:1018D00089858B87EDC08885082F10E01E8F0D8FBE
:1018E0002D8D3E8D2B323105C1F08D8D9E8D8C322C
:1018F00091053CF40D8D1E8D0A32110509F45FC06F
:10190000D7C02D8D3E8D2D32310581F18D8D9E8D6F
:101910008F32910509F490C0CBC089858A3219F0C5
:1019200089858F3219F481E08F83C2C08985E82EC2
:10193000FF24FC8EEB8E0B8D1C8D0D32110571F08A
:101940002B8D3C8D2D33310561F08B8D9C8D8B3231
:10195000910509F0ADC08BE28B87AAC08DE28B8721
:10196000A7C081E08F838DE38B87A2C089858A32EF
:1019700019F089858F3219F481E08F8399C08985A8
:10198000E82EFF24FA8EE98E098D1A8D0D3211058D
:1019900071F0298D3A8D2D33310561F0898D9A8D45
:1019A0008B32910509F084C08DE28B8781C08BE278
:1019B0008B877EC081E08F838DE38B8779C089859B
:1019C000E82EFF24F88EEF8A0F89188D0D3211054D
:1019D00009F12F89388D2E3231055CF48F89988D6D
:1019E0008A329105A1F00F89188D0B321105E1F0B3
:1019F0005FC02F89388D2F32310531F08F89988D56
:101A00008D339105A1F054C081E08F8351C081E0F6
:101A10008F834EC08AE28B878D81882311F01D82CF
:101A200047C081E08D8344C08AE28B8741C081E05A
:101A30008F838DE38B873CC08985E82EFF24FE8A47
:101A4000ED8A0D891E890D32110509F12D893E8916
:101A50002E3231055CF48D899E898A329105A1F080
:101A60000D891E890B321105E1F022C02D893E89B6
:101A70002F32310531F08D899E898D339105A1F08A
:101A800017C081E08F8314C081E08F8311C08FE283
:101A90008B878D81882311F01D820AC081E08D83A0
:101AA00007C08FE28B8704C081E08F838DE38B8733
:101AB0008B858887188A198A1A8A1B8A8C898031B3
:101AC00018F088E10E94BC188B858D3309F060C83E
:101AD0008CE00E94BC188F81813071F481E060E05D
:101AE0000E94C91884E690E00E94F91782E00E94E3
:101AF000BC1881E08B8349C08E81813071F481E014
:101B000060E00E94C91881E790E00E94F91782E026
:101B10000E94BC1881E08B8338C081E060E00E94A5
:101B2000C9188C859D85AE85BF850097A105B10537
:101B300059F48C81882341F08981813029F48DE228
:101B40000E94EC1781E08A838C859D85AE85BF85D8
:101B5000BC01CD010E9415188EE20E94EC178C8109
:101B6000882339F480E30E94EC1780E30E94EC178D
:101B700009C08C81882F90E0A0E0B0E0BC01CD01CD
:101B80000E94151882E00E94BC188DE3888700C867
:101B9000DF93CF9300D000D0CDB7DEB78A83198210
:101BA0008A81282F30E03C832B838B819C81873076
:101BB000910509F472C02B813C812830310544F530
:101BC0008B819C818330910509F464C02B813C8119
:101BD0002430310594F48B819C818130910509F486
:101BE00053C02B813C81223031050CF050C08B81D9
:101BF0009C81009709F445C05BC02B813C81253056
:101C00003105C9F18B819C8186309105BCF530C0CE
:101C10002B813C812B30310509F442C08B819C81A2
:101C20008C3091055CF42B813C8129303105D1F059
:101C30008B819C818A309105C4F411C02B813C8139
:101C40002E30310599F18B819C818F30910559F1AE
:101C50002B813C812D30310559F5198229C081E055
:101C6000898326C082E0898323C083E0898320C0E2
:101C700084E089831DC085E089831AC086E089835A
:101C800017C087E0898314C088E0898311C089E088
:101C900089830EC08BE289830BC08DE2898308C0E3
:101CA0008AE2898305C08FE2898302C08DE389833C
:101CB00089810F900F900F900F90CF91DF91089531
:101CC000DF93CF93CDB7DEB729970FB6F894DEBF79
:101CD0000FBECDBF89836A834B838B81882309F034
:101CE0006FC08981282F30E03987288788859985BA
:101CF0008130910549F128853985223031052CF450
:101D000088859985009761F0E2C128853985223060
:101D1000310571F18885998583309105E9F1D7C145
:101D2000AAE3B0E0EAE3F0E08081482F8A81282F1F
:101D300030E081E090E0022E02C0880F991F0A94E3
:101D4000E2F7842B8C93C3C1A7E3B0E0E7E3F0E0B4
:101D50008081482F8A81282F30E081E090E0022E98
:101D600002C0880F991F0A94E2F7842B8C93AFC1AD
:101D7000A4E3B0E0E4E3F0E08081482F8A81282FDB
:101D800030E081E090E0022E02C0880F991F0A9493
:101D9000E2F7842B8C939BC1A1E3B0E0E1E3F0E098
:101DA0008081482F8A81282F30E081E090E0022E48
:101DB00002C0880F991F0A94E2F7842B8C9387C185
:101DC0008B81813009F0C2C08981282F30E03F83A8
:101DD0002E838E819F818130910509F43FC02E8131
:101DE0003F81223031052CF48E819F81009771F064
:101DF0006EC12E813F812230310509F457C08E819A
:101E00009F818330910509F479C061C1AAE3B0E0F4
:101E1000EAE3F0E08081482F8A81282F30E081E0DA
:101E200090E002C0880F991F2A95E2F780958423DD
:101E30008C93ABE3B0E0EBE3F0E08081482F8A8144
:101E4000282F30E081E090E0022E02C0880F991F19
:101E50000A94E2F7809584238C9339C1A7E3B0E01C
:101E6000E7E3F0E08081482F8A81282F30E081E08D
:101E700090E002C0880F991F2A95E2F7809584238D
:101E80008C93A8E3B0E0E8E3F0E08081482F8A81FA
:101E9000282F30E081E090E0022E02C0880F991FC9
:101EA0000A94E2F7809584238C9311C1A4E3B0E0F7
:101EB000E4E3F0E08081482F8A81282F30E081E040
:101EC00090E002C0880F991F2A95E2F7809584233D
:101ED0008C93A5E3B0E0E5E3F0E08081482F8A81B0
:101EE000282F30E081E090E0022E02C0880F991F79
:101EF0000A94E2F7809584238C93E9C0A1E3B0E0D3
:101F0000E1E3F0E08081482F8A81282F30E081E0F2
:101F100090E002C0880F991F2A95E2F780958423EC
:101F20008C93A2E3B0E0E2E3F0E08081482F8A8165
:101F3000282F30E081E090E0022E02C0880F991F28
:101F40000A94E2F7809584238C93C1C08B81823000
:101F500009F0BDC08981282F30E03D832C838C811E
:101F60009D818130910509F43EC02C813D81223054
:101F700031052CF48C819D81009771F0A8C02C81D3
:101F80003D812230310509F455C08C819D8183301B
:101F9000910509F476C09BC0AAE3B0E0EAE3F0E063
:101FA0008081482F8A81282F30E081E090E002C0B4
:101FB000880F991F2A95E2F7809584238C93ABE3D1
:101FC000B0E0EBE3F0E08081482F8A81282F30E0F9
:101FD00081E090E0022E02C0880F991F0A94E2F778
:101FE000842B8C9374C0A7E3B0E0E7E3F0E080813A
:101FF000482F8A81282F30E081E090E002C0880FCE
:10200000991F2A95E2F7809584238C93A8E3B0E08A
:10201000E8E3F0E08081482F8A81282F30E081E0DA
:1020200090E0022E02C0880F991F0A94E2F7842BD9
:102030008C934DC0A4E3B0E0E4E3F0E08081482F4E
:102040008A81282F30E081E090E002C0880F991F3C
:102050002A95E2F7809584238C93A5E3B0E0E5E32D
:10206000F0E08081482F8A81282F30E081E090E0E5
:10207000022E02C0880F991F0A94E2F7842B8C93DA
:1020800026C0A1E3B0E0E1E3F0E08081482F8A813F
:10209000282F30E081E090E002C0880F991F2A9538
:1020A000E2F7809584238C93A2E3B0E0E2E3F0E0D2
:1020B0008081482F8A81282F30E081E090E0022E35
:1020C00002C0880F991F0A94E2F7842B8C932996FB
:1020D0000FB6F894DEBF0FBECDBFCF91DF9108954C
:1020E000DF93CF93CDB7DEB727970FB6F894DEBF57
:1020F0000FBECDBF89836A834B838B81813009F00A
:102100006FC08981282F30E03F832E838E819F818D
:102110008130910549F12E813F81223031052CF427
:102120008E819F81009761F0D2C02E813F81223045
:10213000310571F18E819F8183309105E9F1C7C02E
:10214000ABE3B0E0EBE3F0E08081482F8A81282FF9
:1021500030E081E090E0022E02C0880F991F0A94BF
:10216000E2F7842B8C93B3C0A8E3B0E0E8E3F0E09F
:102170008081482F8A81282F30E081E090E0022E74
:1021800002C0880F991F0A94E2F7842B8C939FC09A
:10219000A5E3B0E0E5E3F0E08081482F8A81282FB5
:1021A00030E081E090E0022E02C0880F991F0A946F
:1021B000E2F7842B8C938BC0A2E3B0E0E2E3F0E083
:1021C0008081482F8A81282F30E081E090E0022E24
:1021D00002C0880F991F0A94E2F7842B8C9377C072
:1021E0008B81882309F073C08981282F30E03D83DB
:1021F0002C838C819D818130910559F12C813D8109
:10220000223031052CF48C819D81009769F05FC0EC
:102210002C813D812230310589F18C819D81833073
:10222000910509F440C053C0ABE3B0E0EBE3F0E04C
:102230008081482F8A81282F30E081E090E0022EB3
:1022400002C0880F991F0A94E2F7809584238C932B
:102250003EC0A8E3B0E0E8E3F0E08081482F8A8147
:10226000282F30E081E090E0022E02C0880F991FF5
:102270000A94E2F7809584238C9329C0A5E3B0E00B
:10228000E5E3F0E08081482F8A81282F30E081E06B
:1022900090E0022E02C0880F991F0A94E2F7809501
:1022A00084238C9314C0A2E3B0E0E2E3F0E08081E9
:1022B000482F8A81282F30E081E090E0022E02C072
:1022C000880F991F0A94E2F7809584238C932796B0
:1022D0000FB6F894DEBF0FBECDBFCF91DF9108954A
:1022E000DF93CF9300D000D00F92CDB7DEB78A83B3
:1022F0006B838A81282F30E03D832C834C815D8164
:102300004130510509F43CC08C819D81823091059A
:1023100034F42C813D812115310571F09CC04C8134
:102320005D814230510509F44FC08C819D8183301D
:10233000910509F46DC08FC0ABE3B0E0EBE3F0E0D2
:102340008081482F8B81282F30E081E090E002C00F
:10235000880F991F2A95E2F784278C93EBE3F0E02E
:102360008081282F30E08B81882F90E0A90102C066
:10237000559547958A95E2F7CA01817089836BC0AC
:10238000A8E3B0E0E8E3F0E08081482F8B81282FBC
:1023900030E081E090E002C0880F991F2A95E2F7B3
:1023A00084278C93E8E3F0E08081282F30E08B8154
:1023B000882F90E0A90102C0559547958A95E2F7CC
:1023C000CA018170898347C0A5E3B0E0E5E3F0E08E
:1023D0008081482F8B81282F30E081E090E002C07F
:1023E000880F991F2A95E2F784278C93E5E3F0E0A4
:1023F0008081282F30E08B81882F90E0A90102C0D6
:10240000559547958A95E2F7CA018170898323C063
:10241000A2E3B0E0E2E3F0E08081482F8B81282F37
:1024200030E081E090E002C0880F991F2A95E2F722
:1024300084278C93E2E3F0E08081282F30E08B81C9
:10244000882F90E0A90102C0559547958A95E2F73B
:10245000CA018170898389810F900F900F900F902E
:102460000F90CF91DF910895DF93CF9300D000D0EC
:102470000F92CDB7DEB78A836B8319828A81282FAA
:1024800030E03D832C834C815D814130510571F1F9
:102490008C819D818230910534F42C813D81211500
:1024A000310569F064C04C815D8142305105A1F174
:1024B0008C819D818330910509F444C058C0E9E3C3
:1024C000F0E08081282F30E08B81882F90E0A901F7
:1024D00002C0559547958A95E2F7CA0181709070C0
:1024E000882309F444C081E0898341C0E6E3F0E039
:1024F0008081282F30E08B81882F90E0A90102C0D5
:10250000559547958A95E2F7CA01817090708823A6
:1025100071F181E089832BC0E3E3F0E08081282F13
:1025200030E08B81882F90E0A90102C05595479536
:102530008A95E2F7CA01817090708823C1F081E02A
:10254000898315C0E0E3F0E08081282F30E08B81A3
:10255000882F90E0A90102C0559547958A95E2F72A
:10256000CA0181709070882311F081E0898389818C
:102570000F900F900F900F900F90CF91DF910895D3
:10258000DF93CF9300D000D0CDB7DEB789836A83C5
:102590008981282F30E03C832B838B819C81813083
:1025A0009105D1F02B813C81223031052CF48B81B7
:1025B0009C81009761F01EC02B813C812230310547
:1025C00081F08B819C818330910581F013C0EAE317
:1025D000F0E08A8180830EC0E7E3F0E08A818083A7
:1025E00009C0E4E3F0E08A81808304C0E1E3F0E025
:1025F0008A8180830F900F900F900F90CF91DF9181
:102600000895DF93CF9300D000D0CDB7DEB7898394
:102610006A838981282F30E03C832B838B819C81C6
:1026200081309105D1F02B813C81223031052CF491
:102630008B819C81009761F01EC02B813C812230F0
:10264000310581F08B819C818330910581F013C02D
:10265000EBE3F0E08A8180830EC0E8E3F0E08A815A
:10266000808309C0E5E3F0E08A81808304C0E2E36F
:10267000F0E08A8180830F900F900F900F90CF91A0
:10268000DF910895DF93CF9300D000D0CDB7DEB7B0
:102690008A8319828A81282F30E03C832B838B81A7
:1026A0009C8181309105D1F02B813C812230310514
:1026B0002CF48B819C81009761F01EC02B813C81A2
:1026C0002230310581F08B819C818330910581F02E
:1026D00013C0E9E3F0E0808189830EC0E6E3F0E017
:1026E0008081898309C0E3E3F0E08081898304C0AD
:1026F000E0E3F0E08081898389810F900F900F9053
:102700000F90CF91DF910895DF93CF93CDB7DEB7D0
:1027100082E064E042E00E94600E82E065E042E018
:102720000E94600E82E066E042E00E94600E82E05D
:1027300067E042E00E94600E82E063E040E00E94B9
:10274000600E82E062E040E00E94600E82E061E0A4
:1027500040E00E94600E82E060E040E00E94600E77
:1027600082E063E041E00E94701082E062E041E0BC
:102770000E94701082E061E041E00E94701082E0EF
:1027800060E041E00E947010CF91DF910895DF93E7
:10279000CF93CDB7DEB762970FB6F894DEBF0FBE0A
:1027A000CDBF8A8B198A8A8986958695888B8A8976
:1027B00083708F878F8560E00E94AA1488890E94A9
:1027C000EF14882309F079C080E090E0A0EAB0E43B
:1027D0008B879C87AD87BE876B857C858D859E8525
:1027E00020E030E04AEF54E40E941702DC01CB0104
:1027F0008F839887A987BA876F81788589859A851D
:1028000020E030E040E85FE30E94710388232CF46D
:1028100081E090E09E838D833FC06F8178858985BC
:102820009A8520E03FEF4FE757E40E941103181606
:102830004CF56B857C858D859E8520E030E040E2FF
:1028400051E40E941702DC01CB01BC01CD010E94C2
:102850004100DC01CB019E838D830FC088EC90E0AA
:102860009C838B838B819C810197F1F79C838B8365
:102870008D819E8101979E838D838D819E8100979E
:1028800069F714C06F81788589859A850E94410017
:10289000DC01CB019E838D838D819E819A83898308
:1028A00089819A810197F1F79A83898388890E94A7
:1028B000EF14882311F481E0898B8F8561E00E94F9
:1028C000AA14898962960FB6F894DEBF0FBECDBFF9
:1028D000CF91DF910895DF93CF9300D0CDB7DEB7CE
:1028E00080E189831A820BC08A810E94C7138130DC
:1028F00019F48A81898306C08A818F5F8A838A81DD
:10290000803190F389810F900F90CF91DF910895DE
:10291000DF93CF9300D0CDB7DEB780E189831A82F1
:1029200010C08A810E94C713813041F48A81898353
:102930008A810E94C7138130D9F306C08A818F5FD4
:102940008A838A81803168F389810F900F90CF91BB
:10295000DF910895DF93CF9300D000D0CDB7DEB7DD
:1029600089836A838981282F30E03C832B838B8184
:102970009C8181309105D9F02B813C812230310539
:102980002CF48B819C81009761F022C02B813C81CB
:102990002230310591F08B819C818330910599F033
:1029A00017C082E063E04A810E94701011C082E08B
:1029B00062E04A810E9470100BC082E061E04A81AF
:1029C0000E94701005C082E060E04A810E94701091
:1029D0000F900F900F900F90CF91DF910895DF939C
:1029E000CF9300D000D0CDB7DEB78A8381E0898352
:1029F0008A81282F30E03C832B838B819C8181301E
:102A00009105D9F02B813C81223031052CF48B814A
:102A10009C81009761F022C02B813C8122303105DE
:102A200091F08B819C818330910599F017C082E0F1
:102A300064E00E943412898311C082E065E00E9444
:102A4000341289830BC082E066E00E9434128983CD
:102A500005C082E067E00E943412898389810F906B
:102A60000F900F900F90CF91DF910895DF93CF9348
:102A7000CDB7DEB762970FB6F894DEBF0FBECDBFFD
:102A80000E94AE1780E090E0A0EFB1E48B879C87B6
:102A9000AD87BE876B857C858D859E8520E030E087
:102AA0004AEF54E40E941702DC01CB018F83988720
:102AB000A987BA876F81788589859A8520E030E07B
:102AC00040E85FE30E94710388232CF481E090E0EA
:102AD0009E838D833FC06F81788589859A8520E0AC
:102AE0003FEF4FE757E40E94110318164CF56B8532
:102AF0007C858D859E8520E030E040E251E40E9497
:102B00001702DC01CB01BC01CD010E944100DC01B8
:102B1000CB019E838D830FC088EC90E09C838B83D8
:102B20008B819C810197F1F79C838B838D819E81A2
:102B300001979E838D838D819E81009769F714C0D4
:102B40006F81788589859A850E944100DC01CB01DF
:102B50009E838D838D819E819A83898389819A81C9
:102B60000197F1F79A83898381E08F8781E0888BD1
:102B700081E0898B1A8A8F859889A989BA89BC01D5
:102B8000CD010E94ED180E94CE1562960FB6F89402
:102B9000DEBF0FBECDBFCF91DF910895DF93CF93FE
:102BA000CDB7DEB781E00E94D815CF91DF910895AF
:102BB000DF93CF93CDB7DEB72F970FB6F894DEBF74
:102BC0000FBECDBF8F8780E062E040E00E947010B2
:102BD00080E063E040E00E9470108F85982F917034
:102BE00081E060E0492F0E9470108F858695982FB4
:102BF000917081E061E0492F0E9470108F85869569
:102C00008695982F917081E062E0492F0E947010A4
:102C10008F85869586958695982F917081E063E0E3
:102C2000492F0E9470108F8582958F70982F917018
:102C300081E064E0492F0E9470108F85829586950F
:102C40008770982F917081E065E0492F0E94701085
:102C50008F858295869586958370982F917081E0F7
:102C600066E0492F0E9470108F85982F991F992731
:102C7000991F81E067E0492F0E94701080E064E0B6
:102C800041E00E94701080E090E0A0E0B0E48B870B
:102C90009C87AD87BE876B857C858D859E8520E072
:102CA00030E04AEF54E40E941702DC01CB018F832D
:102CB0009887A987BA876F81788589859A8520E06A
:102CC00030E040E85FE30E94710388232CF481E048
:102CD00090E09E838D833FC06F81788589859A853A
:102CE00020E03FEF4FE757E40E94110318164CF520
:102CF0006B857C858D859E8520E030E040E251E447
:102D00000E941702DC01CB01BC01CD010E944100F1
:102D1000DC01CB019E838D830FC088EC90E09C8307
:102D20008B838B819C810197F1F79C838B838D81B1
:102D30009E8101979E838D838D819E81009769F787
:102D400014C06F81788589859A850E944100DC01D5
:102D5000CB019E838D838D819E819A838983898116
:102D60009A810197F1F79A83898380E064E040E0DB
:102D70000E9470102F960FB6F894DEBF0FBECDBF25
:102D8000CF91DF910895DF93CF93CDB7DEB72F9723
:102D90000FB6F894DEBF0FBECDBF8F8780E062E034
:102DA00041E00E94701080E063E040E00E947010FB
:102DB0008F85982F917081E060E0492F0E947010FC
:102DC0008F858695982F917081E061E0492F0E9450
:102DD00070108F8586958695982F917081E062E0BE
:102DE000492F0E9470108F85869586958695982F1D
:102DF000917081E063E0492F0E9470108F85829569
:102E00008F70982F917081E064E0492F0E947010BC
:102E10008F85829586958770982F917081E065E007
:102E2000492F0E9470108F858295869586958370B4
:102E3000982F917081E066E0492F0E9470108F8575
:102E4000982F991F9927991F81E067E0492F0E94C9
:102E5000701080E064E041E00E94701080E090E03B
:102E6000A0E0B0E48B879C87AD87BE876B857C85AF
:102E70008D859E8520E030E04AEF54E40E941702E1
:102E8000DC01CB018F839887A987BA876F8178850A
:102E900089859A8520E030E040E85FE30E94710375
:102EA00088232CF481E090E09E838D833FC06F8166
:102EB000788589859A8520E03FEF4FE757E40E94A7
:102EC000110318164CF56B857C858D859E8520E059
:102ED00030E040E251E40E941702DC01CB01BC016A
:102EE000CD010E944100DC01CB019E838D830FC088
:102EF00088EC90E09C838B838B819C810197F1F718
:102F00009C838B838D819E8101979E838D838D8190
:102F10009E81009769F714C06F81788589859A85AD
:102F20000E944100DC01CB019E838D838D819E81B7
:102F30009A83898389819A810197F1F79A8389839A
:102F400080E064E040E00E9470102F960FB6F89485
:102F5000DEBF0FBECDBFCF91DF910895DF93CF933A
:102F6000CDB7DEB780E062E040E00E94600E80E016
:102F700063E040E00E94600E80E064E040E00E9478
:102F8000600E81E060E040E00E94600E81E061E060
:102F900040E00E94600E81E062E040E00E94600E2E
:102FA00081E063E040E00E94600E81E064E040E088
:102FB0000E94600E81E065E040E00E94600E81E0CA
:102FC00066E040E00E94600E81E067E040E00E9421
:102FD000600ECF91DF910895DF93CF930F92CDB71D
:102FE000DEB7898389810E94C3160F90CF91DF914C
:102FF0000895DF93CF9300D0CDB7DEB79A8389834E
:103000000AC0E981FA8180810E94C31689819A8170
:1030100001969A838983E981FA818081882389F7DF
:103020000F900F90CF91DF910895EF92FF920F9341
:103030001F93DF93CF93CDB7DEB729970FB6F894E0
:10304000DEBF0FBECDBF6E837F83888799871A82CC
:103050001B821C821D8219828E819F81A885B98561
:10306000BB2394F48DE20E94C3168E819F81A885B4
:10307000B985B095A095909581959F4FAF4FBF4F63
:103080008E839F83A887B9878A819B81AC81BD810C
:103090002AE030E040E050E0BC01CD010E944C1934
:1030A0007B018C018E819F81A885B9852AE030E063
:1030B00040E050E0BC01CD010E948D19DC01CB0144
:1030C0008E0D9F1DA01FB11F8A839B83AC83BD8380
:1030D0008E819F81A885B9852AE030E040E050E0EC
:1030E000BC01CD010E948D19DA01C9018E839F8335
:1030F000A887B98789818F5F89838E819F81A88501
:10310000B9850097A105B10509F0BECF8A819B81E1
:10311000AC81BD812AE030E040E050E0BC01CD014F
:103120000E946B19DC01CB01805D0E94C3168A816D
:103130009B81AC81BD812AE030E040E050E0BC01E1
:10314000CD010E946B19DA01C9018A839B83AC838C
:10315000BD8389818150898389818823B9F6299625
:103160000FB6F894DEBF0FBECDBFCF91DF911F9198
:103170000F91FF90EF900895DF93CF930F92CDB70B
:10318000DEB7898389810E94D8150F90CF91DF9196
:103190000895DF93CF9300D00F92CDB7DEB78A8327
:1031A0006B838A81882F90E00024969587950794F9
:1031B000969587950794982F802D982F8B81890F4E
:1031C000898389818068898389810E94D8150F90BD
:1031D0000F900F90CF91DF910895DF93CF93CDB7EC
:1031E000DEB727970FB6F894DEBF0FBECDBF6A8358
:1031F0007B838C839D8380E389838C81813019F468
:103200008981886089838D81813019F48981846006
:10321000898389810E94D8158A81882321F488E0D6
:103220000E94D81521C08A818130F1F48B81282F2A
:1032300030E03F832E838E819F818130910569F03C
:103240002E813F812230310561F08E819F81009770
:1032500059F48CE00E94D81507C08FE00E94D81561
:1032600003C08EE00E94D81527960FB6F894DEBFF3
:103270000FBECDBFCF91DF910895DF93CF93CDB730
:10328000DEB70E9436150E9484130E94A60580E0D6
:1032900090E0CF91DF910895629FD001739FF0017C
:1032A000829FE00DF11D649FE00DF11D929FF00DD6
:1032B000839FF00D749FF00D659FF00D9927729F0D
:1032C000B00DE11DF91F639FB00DE11DF91FBD0198
:1032D000CF0111240895A1E21A2EAA1BBB1BFD01E8
:1032E0000DC0AA1FBB1FEE1FFF1FA217B307E407E5
:1032F000F50720F0A21BB30BE40BF50B661F771F3D
:10330000881F991F1A9469F760957095809590951C
:103310009B01AC01BD01CF01089597FB092E052645
:103320000ED057FD04D0D7DF0AD0001C38F45095DA
:103330004095309521953F4F4F4F5F4F0895F6F7D9
:1033400090958095709561957F4F8F4F9F4F089511
:103350002F923F924F925F926F927F928F929F92A5
:10336000AF92BF92CF92DF92EF92FF920F931F9393
:10337000CF93DF93CDB7DEB7CA1BDB0B0FB6F89444
:10338000DEBF0FBECDBF09942A88398848885F8484
:103390006E847D848C849B84AA84B984C884DF80F5
:1033A000EE80FD800C811B81AA81B981CE0FD11DD9
:1033B0000FB6F894DEBF0FBECDBFED010895F894AF
:0233C000FFCF3D
:1033C200416E730073796E746178206572726F72E8
:1033D200006D617468206572726F720000000000F7
:0433E20000000000E7
:00000001FF
